{
  "_format": "hh-sol-artifact-1",
  "contractName": "EventRegistration",
  "sourceName": "contracts/EventRegistration.sol",
  "abi": [
    {
      "inputs": [],
      "stateMutability": "nonpayable",
      "type": "constructor"
    },
    {
      "inputs": [],
      "name": "ERC721EnumerableForbiddenBatchMint",
      "type": "error"
    },
    {
      "inputs": [
        {
          "internalType": "address",
          "name": "sender",
          "type": "address"
        },
        {
          "internalType": "uint256",
          "name": "tokenId",
          "type": "uint256"
        },
        {
          "internalType": "address",
          "name": "owner",
          "type": "address"
        }
      ],
      "name": "ERC721IncorrectOwner",
      "type": "error"
    },
    {
      "inputs": [
        {
          "internalType": "address",
          "name": "operator",
          "type": "address"
        },
        {
          "internalType": "uint256",
          "name": "tokenId",
          "type": "uint256"
        }
      ],
      "name": "ERC721InsufficientApproval",
      "type": "error"
    },
    {
      "inputs": [
        {
          "internalType": "address",
          "name": "approver",
          "type": "address"
        }
      ],
      "name": "ERC721InvalidApprover",
      "type": "error"
    },
    {
      "inputs": [
        {
          "internalType": "address",
          "name": "operator",
          "type": "address"
        }
      ],
      "name": "ERC721InvalidOperator",
      "type": "error"
    },
    {
      "inputs": [
        {
          "internalType": "address",
          "name": "owner",
          "type": "address"
        }
      ],
      "name": "ERC721InvalidOwner",
      "type": "error"
    },
    {
      "inputs": [
        {
          "internalType": "address",
          "name": "receiver",
          "type": "address"
        }
      ],
      "name": "ERC721InvalidReceiver",
      "type": "error"
    },
    {
      "inputs": [
        {
          "internalType": "address",
          "name": "sender",
          "type": "address"
        }
      ],
      "name": "ERC721InvalidSender",
      "type": "error"
    },
    {
      "inputs": [
        {
          "internalType": "uint256",
          "name": "tokenId",
          "type": "uint256"
        }
      ],
      "name": "ERC721NonexistentToken",
      "type": "error"
    },
    {
      "inputs": [
        {
          "internalType": "address",
          "name": "owner",
          "type": "address"
        },
        {
          "internalType": "uint256",
          "name": "index",
          "type": "uint256"
        }
      ],
      "name": "ERC721OutOfBoundsIndex",
      "type": "error"
    },
    {
      "inputs": [
        {
          "internalType": "address",
          "name": "owner",
          "type": "address"
        }
      ],
      "name": "OwnableInvalidOwner",
      "type": "error"
    },
    {
      "inputs": [
        {
          "internalType": "address",
          "name": "account",
          "type": "address"
        }
      ],
      "name": "OwnableUnauthorizedAccount",
      "type": "error"
    },
    {
      "anonymous": false,
      "inputs": [
        {
          "indexed": true,
          "internalType": "address",
          "name": "owner",
          "type": "address"
        },
        {
          "indexed": true,
          "internalType": "address",
          "name": "approved",
          "type": "address"
        },
        {
          "indexed": true,
          "internalType": "uint256",
          "name": "tokenId",
          "type": "uint256"
        }
      ],
      "name": "Approval",
      "type": "event"
    },
    {
      "anonymous": false,
      "inputs": [
        {
          "indexed": true,
          "internalType": "address",
          "name": "owner",
          "type": "address"
        },
        {
          "indexed": true,
          "internalType": "address",
          "name": "operator",
          "type": "address"
        },
        {
          "indexed": false,
          "internalType": "bool",
          "name": "approved",
          "type": "bool"
        }
      ],
      "name": "ApprovalForAll",
      "type": "event"
    },
    {
      "anonymous": false,
      "inputs": [
        {
          "indexed": false,
          "internalType": "uint256",
          "name": "eventId",
          "type": "uint256"
        }
      ],
      "name": "EventCancelled",
      "type": "event"
    },
    {
      "anonymous": false,
      "inputs": [
        {
          "indexed": false,
          "internalType": "uint256",
          "name": "eventId",
          "type": "uint256"
        },
        {
          "indexed": false,
          "internalType": "string",
          "name": "name",
          "type": "string"
        },
        {
          "indexed": false,
          "internalType": "uint256",
          "name": "ticketPrice",
          "type": "uint256"
        },
        {
          "indexed": false,
          "internalType": "uint256",
          "name": "totalTickets",
          "type": "uint256"
        },
        {
          "indexed": false,
          "internalType": "uint256",
          "name": "eventDate",
          "type": "uint256"
        }
      ],
      "name": "EventCreated",
      "type": "event"
    },
    {
      "anonymous": false,
      "inputs": [
        {
          "indexed": true,
          "internalType": "address",
          "name": "previousOwner",
          "type": "address"
        },
        {
          "indexed": true,
          "internalType": "address",
          "name": "newOwner",
          "type": "address"
        }
      ],
      "name": "OwnershipTransferred",
      "type": "event"
    },
    {
      "anonymous": false,
      "inputs": [
        {
          "indexed": false,
          "internalType": "uint256",
          "name": "eventId",
          "type": "uint256"
        },
        {
          "indexed": false,
          "internalType": "address",
          "name": "buyer",
          "type": "address"
        },
        {
          "indexed": false,
          "internalType": "uint256",
          "name": "tokenId",
          "type": "uint256"
        }
      ],
      "name": "TicketPurchased",
      "type": "event"
    },
    {
      "anonymous": false,
      "inputs": [
        {
          "indexed": true,
          "internalType": "address",
          "name": "from",
          "type": "address"
        },
        {
          "indexed": true,
          "internalType": "address",
          "name": "to",
          "type": "address"
        },
        {
          "indexed": true,
          "internalType": "uint256",
          "name": "tokenId",
          "type": "uint256"
        }
      ],
      "name": "Transfer",
      "type": "event"
    },
    {
      "inputs": [
        {
          "internalType": "address",
          "name": "to",
          "type": "address"
        },
        {
          "internalType": "uint256",
          "name": "tokenId",
          "type": "uint256"
        }
      ],
      "name": "approve",
      "outputs": [],
      "stateMutability": "nonpayable",
      "type": "function"
    },
    {
      "inputs": [
        {
          "internalType": "address",
          "name": "owner",
          "type": "address"
        }
      ],
      "name": "balanceOf",
      "outputs": [
        {
          "internalType": "uint256",
          "name": "",
          "type": "uint256"
        }
      ],
      "stateMutability": "view",
      "type": "function"
    },
    {
      "inputs": [
        {
          "internalType": "uint256",
          "name": "eventId",
          "type": "uint256"
        }
      ],
      "name": "cancelEvent",
      "outputs": [],
      "stateMutability": "nonpayable",
      "type": "function"
    },
    {
      "inputs": [
        {
          "internalType": "string",
          "name": "name",
          "type": "string"
        },
        {
          "internalType": "uint256",
          "name": "ticketPrice",
          "type": "uint256"
        },
        {
          "internalType": "uint256",
          "name": "totalTickets",
          "type": "uint256"
        },
        {
          "internalType": "uint256",
          "name": "eventDate",
          "type": "uint256"
        }
      ],
      "name": "createEvent",
      "outputs": [],
      "stateMutability": "nonpayable",
      "type": "function"
    },
    {
      "inputs": [
        {
          "internalType": "uint256",
          "name": "",
          "type": "uint256"
        }
      ],
      "name": "events",
      "outputs": [
        {
          "internalType": "uint256",
          "name": "eventId",
          "type": "uint256"
        },
        {
          "internalType": "string",
          "name": "name",
          "type": "string"
        },
        {
          "internalType": "uint256",
          "name": "ticketPrice",
          "type": "uint256"
        },
        {
          "internalType": "uint256",
          "name": "totalTickets",
          "type": "uint256"
        },
        {
          "internalType": "uint256",
          "name": "ticketsSold",
          "type": "uint256"
        },
        {
          "internalType": "uint256",
          "name": "eventDate",
          "type": "uint256"
        },
        {
          "internalType": "bool",
          "name": "active",
          "type": "bool"
        }
      ],
      "stateMutability": "view",
      "type": "function"
    },
    {
      "inputs": [
        {
          "internalType": "uint256",
          "name": "tokenId",
          "type": "uint256"
        }
      ],
      "name": "getApproved",
      "outputs": [
        {
          "internalType": "address",
          "name": "",
          "type": "address"
        }
      ],
      "stateMutability": "view",
      "type": "function"
    },
    {
      "inputs": [
        {
          "internalType": "uint256",
          "name": "eventId",
          "type": "uint256"
        }
      ],
      "name": "getEvent",
      "outputs": [
        {
          "internalType": "string",
          "name": "name",
          "type": "string"
        },
        {
          "internalType": "uint256",
          "name": "ticketPrice",
          "type": "uint256"
        },
        {
          "internalType": "uint256",
          "name": "totalTickets",
          "type": "uint256"
        },
        {
          "internalType": "uint256",
          "name": "ticketsSold",
          "type": "uint256"
        },
        {
          "internalType": "uint256",
          "name": "eventDate",
          "type": "uint256"
        },
        {
          "internalType": "bool",
          "name": "active",
          "type": "bool"
        }
      ],
      "stateMutability": "view",
      "type": "function"
    },
    {
      "inputs": [
        {
          "internalType": "address",
          "name": "owner",
          "type": "address"
        },
        {
          "internalType": "address",
          "name": "operator",
          "type": "address"
        }
      ],
      "name": "isApprovedForAll",
      "outputs": [
        {
          "internalType": "bool",
          "name": "",
          "type": "bool"
        }
      ],
      "stateMutability": "view",
      "type": "function"
    },
    {
      "inputs": [],
      "name": "name",
      "outputs": [
        {
          "internalType": "string",
          "name": "",
          "type": "string"
        }
      ],
      "stateMutability": "view",
      "type": "function"
    },
    {
      "inputs": [],
      "name": "owner",
      "outputs": [
        {
          "internalType": "address",
          "name": "",
          "type": "address"
        }
      ],
      "stateMutability": "view",
      "type": "function"
    },
    {
      "inputs": [
        {
          "internalType": "uint256",
          "name": "tokenId",
          "type": "uint256"
        }
      ],
      "name": "ownerOf",
      "outputs": [
        {
          "internalType": "address",
          "name": "",
          "type": "address"
        }
      ],
      "stateMutability": "view",
      "type": "function"
    },
    {
      "inputs": [
        {
          "internalType": "uint256",
          "name": "eventId",
          "type": "uint256"
        }
      ],
      "name": "purchaseTicket",
      "outputs": [],
      "stateMutability": "payable",
      "type": "function"
    },
    {
      "inputs": [],
      "name": "renounceOwnership",
      "outputs": [],
      "stateMutability": "nonpayable",
      "type": "function"
    },
    {
      "inputs": [
        {
          "internalType": "address",
          "name": "from",
          "type": "address"
        },
        {
          "internalType": "address",
          "name": "to",
          "type": "address"
        },
        {
          "internalType": "uint256",
          "name": "tokenId",
          "type": "uint256"
        }
      ],
      "name": "safeTransferFrom",
      "outputs": [],
      "stateMutability": "nonpayable",
      "type": "function"
    },
    {
      "inputs": [
        {
          "internalType": "address",
          "name": "from",
          "type": "address"
        },
        {
          "internalType": "address",
          "name": "to",
          "type": "address"
        },
        {
          "internalType": "uint256",
          "name": "tokenId",
          "type": "uint256"
        },
        {
          "internalType": "bytes",
          "name": "data",
          "type": "bytes"
        }
      ],
      "name": "safeTransferFrom",
      "outputs": [],
      "stateMutability": "nonpayable",
      "type": "function"
    },
    {
      "inputs": [
        {
          "internalType": "address",
          "name": "operator",
          "type": "address"
        },
        {
          "internalType": "bool",
          "name": "approved",
          "type": "bool"
        }
      ],
      "name": "setApprovalForAll",
      "outputs": [],
      "stateMutability": "nonpayable",
      "type": "function"
    },
    {
      "inputs": [
        {
          "internalType": "bytes4",
          "name": "interfaceId",
          "type": "bytes4"
        }
      ],
      "name": "supportsInterface",
      "outputs": [
        {
          "internalType": "bool",
          "name": "",
          "type": "bool"
        }
      ],
      "stateMutability": "view",
      "type": "function"
    },
    {
      "inputs": [],
      "name": "symbol",
      "outputs": [
        {
          "internalType": "string",
          "name": "",
          "type": "string"
        }
      ],
      "stateMutability": "view",
      "type": "function"
    },
    {
      "inputs": [
        {
          "internalType": "uint256",
          "name": "",
          "type": "uint256"
        }
      ],
      "name": "ticketToEvent",
      "outputs": [
        {
          "internalType": "uint256",
          "name": "",
          "type": "uint256"
        }
      ],
      "stateMutability": "view",
      "type": "function"
    },
    {
      "inputs": [
        {
          "internalType": "uint256",
          "name": "index",
          "type": "uint256"
        }
      ],
      "name": "tokenByIndex",
      "outputs": [
        {
          "internalType": "uint256",
          "name": "",
          "type": "uint256"
        }
      ],
      "stateMutability": "view",
      "type": "function"
    },
    {
      "inputs": [
        {
          "internalType": "address",
          "name": "owner",
          "type": "address"
        },
        {
          "internalType": "uint256",
          "name": "index",
          "type": "uint256"
        }
      ],
      "name": "tokenOfOwnerByIndex",
      "outputs": [
        {
          "internalType": "uint256",
          "name": "",
          "type": "uint256"
        }
      ],
      "stateMutability": "view",
      "type": "function"
    },
    {
      "inputs": [
        {
          "internalType": "uint256",
          "name": "tokenId",
          "type": "uint256"
        }
      ],
      "name": "tokenURI",
      "outputs": [
        {
          "internalType": "string",
          "name": "",
          "type": "string"
        }
      ],
      "stateMutability": "view",
      "type": "function"
    },
    {
      "inputs": [],
      "name": "totalSupply",
      "outputs": [
        {
          "internalType": "uint256",
          "name": "",
          "type": "uint256"
        }
      ],
      "stateMutability": "view",
      "type": "function"
    },
    {
      "inputs": [
        {
          "internalType": "address",
          "name": "from",
          "type": "address"
        },
        {
          "internalType": "address",
          "name": "to",
          "type": "address"
        },
        {
          "internalType": "uint256",
          "name": "tokenId",
          "type": "uint256"
        }
      ],
      "name": "transferFrom",
      "outputs": [],
      "stateMutability": "nonpayable",
      "type": "function"
    },
    {
      "inputs": [
        {
          "internalType": "address",
          "name": "newOwner",
          "type": "address"
        }
      ],
      "name": "transferOwnership",
      "outputs": [],
      "stateMutability": "nonpayable",
      "type": "function"
    },
    {
      "inputs": [
        {
          "internalType": "address",
          "name": "holder",
          "type": "address"
        },
        {
          "internalType": "uint256",
          "name": "eventId",
          "type": "uint256"
        }
      ],
      "name": "verifyTicket",
      "outputs": [
        {
          "internalType": "bool",
          "name": "",
          "type": "bool"
        }
      ],
      "stateMutability": "view",
      "type": "function"
    }
  ],
  "bytecode": "0x60806040523480156200001157600080fd5b50336040518060400160405280600b81526020017f4576656e745469636b65740000000000000000000000000000000000000000008152506040518060400160405280600481526020017f4556545800000000000000000000000000000000000000000000000000000000815250816000908162000090919062000472565b508060019081620000a2919062000472565b505050600073ffffffffffffffffffffffffffffffffffffffff168173ffffffffffffffffffffffffffffffffffffffff16036200011a5760006040517f1e4fbdf70000000000000000000000000000000000000000000000000000000081526004016200011191906200059e565b60405180910390fd5b6200012b816200013260201b60201c565b50620005bb565b6000600a60009054906101000a900473ffffffffffffffffffffffffffffffffffffffff16905081600a60006101000a81548173ffffffffffffffffffffffffffffffffffffffff021916908373ffffffffffffffffffffffffffffffffffffffff1602179055508173ffffffffffffffffffffffffffffffffffffffff168173ffffffffffffffffffffffffffffffffffffffff167f8be0079c531659141344cd1fd0a4f28419497f9722a3daafe3b4186f6b6457e060405160405180910390a35050565b600081519050919050565b7f4e487b7100000000000000000000000000000000000000000000000000000000600052604160045260246000fd5b7f4e487b7100000000000000000000000000000000000000000000000000000000600052602260045260246000fd5b600060028204905060018216806200027a57607f821691505b60208210810362000290576200028f62000232565b5b50919050565b60008190508160005260206000209050919050565b60006020601f8301049050919050565b600082821b905092915050565b600060088302620002fa7fffffffffffffffffffffffffffffffffffffffffffffffffffffffffffffffff82620002bb565b620003068683620002bb565b95508019841693508086168417925050509392505050565b6000819050919050565b6000819050919050565b6000620003536200034d62000347846200031e565b62000328565b6200031e565b9050919050565b6000819050919050565b6200036f8362000332565b620003876200037e826200035a565b848454620002c8565b825550505050565b600090565b6200039e6200038f565b620003ab81848462000364565b505050565b5b81811015620003d357620003c760008262000394565b600181019050620003b1565b5050565b601f8211156200042257620003ec8162000296565b620003f784620002ab565b8101602085101562000407578190505b6200041f6200041685620002ab565b830182620003b0565b50505b505050565b600082821c905092915050565b6000620004476000198460080262000427565b1980831691505092915050565b600062000462838362000434565b9150826002028217905092915050565b6200047d82620001f8565b67ffffffffffffffff81111562000499576200049862000203565b5b620004a5825462000261565b620004b2828285620003d7565b600060209050601f831160018114620004ea5760008415620004d5578287015190505b620004e1858262000454565b86555062000551565b601f198416620004fa8662000296565b60005b828110156200052457848901518255600182019150602085019450602081019050620004fd565b8683101562000544578489015162000540601f89168262000434565b8355505b6001600288020188555050505b505050505050565b600073ffffffffffffffffffffffffffffffffffffffff82169050919050565b6000620005868262000559565b9050919050565b620005988162000579565b82525050565b6000602082019050620005b560008301846200058d565b92915050565b61369080620005cb6000396000f3fe6080604052600436106101815760003560e01c80636352211e116100d1578063a22cb4651161008a578063c87b56dd11610064578063c87b56dd146105b4578063e985e9c5146105f1578063f2fde38b1461062e578063f6ac04da1461065757610181565b8063a22cb46514610546578063b88d4fde1461056f578063b948348c1461059857610181565b80636352211e1461041d5780636d1884e01461045a57806370a082311461049c578063715018a6146104d95780638da5cb5b146104f057806395d89b411461051b57610181565b80631619c6d31161013e5780632f745c59116101185780632f745c59146103515780633f69babd1461038e57806342842e0e146103b75780634f6ccce7146103e057610181565b80631619c6d3146102c057806318160ddd146102fd57806323b872dd1461032857610181565b806301ffc9a7146101865780630374ab0b146101c357806306fdde03146101ec578063081812fc14610217578063095ea7b3146102545780630b7914301461027d575b600080fd5b34801561019257600080fd5b506101ad60048036038101906101a891906126dc565b610694565b6040516101ba9190612724565b60405180910390f35b3480156101cf57600080fd5b506101ea60048036038101906101e591906128bb565b61070e565b005b3480156101f857600080fd5b50610201610829565b60405161020e91906129bd565b60405180910390f35b34801561022357600080fd5b5061023e600480360381019061023991906129df565b6108bb565b60405161024b9190612a4d565b60405180910390f35b34801561026057600080fd5b5061027b60048036038101906102769190612a94565b6108d7565b005b34801561028957600080fd5b506102a4600480360381019061029f91906129df565b6108ed565b6040516102b79796959493929190612ae3565b60405180910390f35b3480156102cc57600080fd5b506102e760048036038101906102e29190612a94565b6109c4565b6040516102f49190612724565b60405180910390f35b34801561030957600080fd5b50610312610a32565b60405161031f9190612b59565b60405180910390f35b34801561033457600080fd5b5061034f600480360381019061034a9190612b74565b610a3f565b005b34801561035d57600080fd5b5061037860048036038101906103739190612a94565b610b41565b6040516103859190612b59565b60405180910390f35b34801561039a57600080fd5b506103b560048036038101906103b091906129df565b610bea565b005b3480156103c357600080fd5b506103de60048036038101906103d99190612b74565b610cb2565b005b3480156103ec57600080fd5b50610407600480360381019061040291906129df565b610cd2565b6040516104149190612b59565b60405180910390f35b34801561042957600080fd5b50610444600480360381019061043f91906129df565b610d48565b6040516104519190612a4d565b60405180910390f35b34801561046657600080fd5b50610481600480360381019061047c91906129df565b610d5a565b60405161049396959493929190612bc7565b60405180910390f35b3480156104a857600080fd5b506104c360048036038101906104be9190612c2f565b610e46565b6040516104d09190612b59565b60405180910390f35b3480156104e557600080fd5b506104ee610f00565b005b3480156104fc57600080fd5b50610505610f14565b6040516105129190612a4d565b60405180910390f35b34801561052757600080fd5b50610530610f3e565b60405161053d91906129bd565b60405180910390f35b34801561055257600080fd5b5061056d60048036038101906105689190612c88565b610fd0565b005b34801561057b57600080fd5b5061059660048036038101906105919190612d69565b610fe6565b005b6105b260048036038101906105ad91906129df565b61100b565b005b3480156105c057600080fd5b506105db60048036038101906105d691906129df565b61119a565b6040516105e891906129bd565b60405180910390f35b3480156105fd57600080fd5b5061061860048036038101906106139190612dec565b611203565b6040516106259190612724565b60405180910390f35b34801561063a57600080fd5b5061065560048036038101906106509190612c2f565b611297565b005b34801561066357600080fd5b5061067e600480360381019061067991906129df565b61131d565b60405161068b9190612b59565b60405180910390f35b60007f780e9d63000000000000000000000000000000000000000000000000000000007bffffffffffffffffffffffffffffffffffffffffffffffffffffffff1916827bffffffffffffffffffffffffffffffffffffffffffffffffffffffff19161480610707575061070682611335565b5b9050919050565b610716611417565b610720600e61149e565b600061072c600e6114b4565b90506040518060e001604052808281526020018681526020018581526020018481526020016000815260200183815260200160011515815250600c60008381526020019081526020016000206000820151816000015560208201518160010190816107979190613038565b5060408201518160020155606082015181600301556080820151816004015560a0820151816005015560c08201518160060160006101000a81548160ff0219169083151502179055509050507f72deeb9ef57375133dcdf3dd5ba7a069d5bb62851a22ce62f0f3bbd7a4343aef818686868660405161081a95949392919061310a565b60405180910390a15050505050565b60606000805461083890612e5b565b80601f016020809104026020016040519081016040528092919081815260200182805461086490612e5b565b80156108b15780601f10610886576101008083540402835291602001916108b1565b820191906000526020600020905b81548152906001019060200180831161089457829003601f168201915b5050505050905090565b60006108c6826114c2565b506108d08261154a565b9050919050565b6108e982826108e4611587565b61158f565b5050565b600c60205280600052604060002060009150905080600001549080600101805461091690612e5b565b80601f016020809104026020016040519081016040528092919081815260200182805461094290612e5b565b801561098f5780601f106109645761010080835404028352916020019161098f565b820191906000526020600020905b81548152906001019060200180831161097257829003601f168201915b5050505050908060020154908060030154908060040154908060050154908060060160009054906101000a900460ff16905087565b6000806109d084610e46565b905060005b81811015610a255760006109e98683610b41565b905084600d60008381526020019081526020016000205403610a115760019350505050610a2c565b508080610a1d90613193565b9150506109d5565b5060009150505b92915050565b6000600880549050905090565b600073ffffffffffffffffffffffffffffffffffffffff168273ffffffffffffffffffffffffffffffffffffffff1603610ab15760006040517f64a0ae92000000000000000000000000000000000000000000000000000000008152600401610aa89190612a4d565b60405180910390fd5b6000610ac58383610ac0611587565b6115a1565b90508373ffffffffffffffffffffffffffffffffffffffff168173ffffffffffffffffffffffffffffffffffffffff1614610b3b578382826040517f64283d7b000000000000000000000000000000000000000000000000000000008152600401610b32939291906131db565b60405180910390fd5b50505050565b6000610b4c83610e46565b8210610b915782826040517fa57d13dc000000000000000000000000000000000000000000000000000000008152600401610b88929190613212565b60405180910390fd5b600660008473ffffffffffffffffffffffffffffffffffffffff1673ffffffffffffffffffffffffffffffffffffffff168152602001908152602001600020600083815260200190815260200160002054905092915050565b610bf2611417565b6000600c600083815260200190815260200160002090508060060160009054906101000a900460ff16610c5a576040517f08c379a0000000000000000000000000000000000000000000000000000000008152600401610c5190613287565b60405180910390fd5b60008160060160006101000a81548160ff0219169083151502179055507fdc3cb569b066460f4a22dffa05317bdcce5d3826382ed49a21f13e5fa2063d3982604051610ca69190612b59565b60405180910390a15050565b610ccd83838360405180602001604052806000815250610fe6565b505050565b6000610cdc610a32565b8210610d22576000826040517fa57d13dc000000000000000000000000000000000000000000000000000000008152600401610d19929190613212565b60405180910390fd5b60088281548110610d3657610d356132a7565b5b90600052602060002001549050919050565b6000610d53826114c2565b9050919050565b6060600080600080600080600c600089815260200190815260200160002090508060010181600201548260030154836004015484600501548560060160009054906101000a900460ff16858054610db090612e5b565b80601f0160208091040260200160405190810160405280929190818152602001828054610ddc90612e5b565b8015610e295780601f10610dfe57610100808354040283529160200191610e29565b820191906000526020600020905b815481529060010190602001808311610e0c57829003601f168201915b505050505095509650965096509650965096505091939550919395565b60008073ffffffffffffffffffffffffffffffffffffffff168273ffffffffffffffffffffffffffffffffffffffff1603610eb95760006040517f89c62b64000000000000000000000000000000000000000000000000000000008152600401610eb09190612a4d565b60405180910390fd5b600360008373ffffffffffffffffffffffffffffffffffffffff1673ffffffffffffffffffffffffffffffffffffffff168152602001908152602001600020549050919050565b610f08611417565b610f1260006116be565b565b6000600a60009054906101000a900473ffffffffffffffffffffffffffffffffffffffff16905090565b606060018054610f4d90612e5b565b80601f0160208091040260200160405190810160405280929190818152602001828054610f7990612e5b565b8015610fc65780601f10610f9b57610100808354040283529160200191610fc6565b820191906000526020600020905b815481529060010190602001808311610fa957829003601f168201915b5050505050905090565b610fe2610fdb611587565b8383611784565b5050565b610ff1848484610a3f565b611005610ffc611587565b858585856118f3565b50505050565b6000600c600083815260200190815260200160002090508060060160009054906101000a900460ff16611073576040517f08c379a000000000000000000000000000000000000000000000000000000000815260040161106a90613322565b60405180910390fd5b80600301548160040154106110bd576040517f08c379a00000000000000000000000000000000000000000000000000000000081526004016110b49061338e565b60405180910390fd5b8060020154341015611104576040517f08c379a00000000000000000000000000000000000000000000000000000000081526004016110fb906133fa565b60405180910390fd5b61110e600b61149e565b600061111a600b6114b4565b90506111263382611aa4565b82600d6000838152602001908152602001600020819055506001826004016000828254611153919061341a565b925050819055507fdbaaf4c87ce30816c961a81d110622a3227ede77953d4383d514ff88ab2e0fd383338360405161118d9392919061344e565b60405180910390a1505050565b60606111a5826114c2565b5060006111b0611b9d565b905060008151116111d057604051806020016040528060008152506111fb565b806111da84611bb4565b6040516020016111eb9291906134c1565b6040516020818303038152906040525b915050919050565b6000600560008473ffffffffffffffffffffffffffffffffffffffff1673ffffffffffffffffffffffffffffffffffffffff16815260200190815260200160002060008373ffffffffffffffffffffffffffffffffffffffff1673ffffffffffffffffffffffffffffffffffffffff16815260200190815260200160002060009054906101000a900460ff16905092915050565b61129f611417565b600073ffffffffffffffffffffffffffffffffffffffff168173ffffffffffffffffffffffffffffffffffffffff16036113115760006040517f1e4fbdf70000000000000000000000000000000000000000000000000000000081526004016113089190612a4d565b60405180910390fd5b61131a816116be565b50565b600d6020528060005260406000206000915090505481565b60007f80ac58cd000000000000000000000000000000000000000000000000000000007bffffffffffffffffffffffffffffffffffffffffffffffffffffffff1916827bffffffffffffffffffffffffffffffffffffffffffffffffffffffff1916148061140057507f5b5e139f000000000000000000000000000000000000000000000000000000007bffffffffffffffffffffffffffffffffffffffffffffffffffffffff1916827bffffffffffffffffffffffffffffffffffffffffffffffffffffffff1916145b80611410575061140f82611c82565b5b9050919050565b61141f611587565b73ffffffffffffffffffffffffffffffffffffffff1661143d610f14565b73ffffffffffffffffffffffffffffffffffffffff161461149c57611460611587565b6040517f118cdaa70000000000000000000000000000000000000000000000000000000081526004016114939190612a4d565b60405180910390fd5b565b6001816000016000828254019250508190555050565b600081600001549050919050565b6000806114ce83611cec565b9050600073ffffffffffffffffffffffffffffffffffffffff168173ffffffffffffffffffffffffffffffffffffffff160361154157826040517f7e2732890000000000000000000000000000000000000000000000000000000081526004016115389190612b59565b60405180910390fd5b80915050919050565b60006004600083815260200190815260200160002060009054906101000a900473ffffffffffffffffffffffffffffffffffffffff169050919050565b600033905090565b61159c8383836001611d29565b505050565b6000806115af858585611eee565b9050600073ffffffffffffffffffffffffffffffffffffffff168173ffffffffffffffffffffffffffffffffffffffff16036115f3576115ee84612108565b611632565b8473ffffffffffffffffffffffffffffffffffffffff168173ffffffffffffffffffffffffffffffffffffffff1614611631576116308185612151565b5b5b600073ffffffffffffffffffffffffffffffffffffffff168573ffffffffffffffffffffffffffffffffffffffff16036116745761166f8461223c565b6116b3565b8473ffffffffffffffffffffffffffffffffffffffff168173ffffffffffffffffffffffffffffffffffffffff16146116b2576116b1858561230d565b5b5b809150509392505050565b6000600a60009054906101000a900473ffffffffffffffffffffffffffffffffffffffff16905081600a60006101000a81548173ffffffffffffffffffffffffffffffffffffffff021916908373ffffffffffffffffffffffffffffffffffffffff1602179055508173ffffffffffffffffffffffffffffffffffffffff168173ffffffffffffffffffffffffffffffffffffffff167f8be0079c531659141344cd1fd0a4f28419497f9722a3daafe3b4186f6b6457e060405160405180910390a35050565b600073ffffffffffffffffffffffffffffffffffffffff168273ffffffffffffffffffffffffffffffffffffffff16036117f557816040517f5b08ba180000000000000000000000000000000000000000000000000000000081526004016117ec9190612a4d565b60405180910390fd5b80600560008573ffffffffffffffffffffffffffffffffffffffff1673ffffffffffffffffffffffffffffffffffffffff16815260200190815260200160002060008473ffffffffffffffffffffffffffffffffffffffff1673ffffffffffffffffffffffffffffffffffffffff16815260200190815260200160002060006101000a81548160ff0219169083151502179055508173ffffffffffffffffffffffffffffffffffffffff168373ffffffffffffffffffffffffffffffffffffffff167f17307eab39ab6107e8899845ad3d59bd9653f200f220920489ca2b5937696c31836040516118e69190612724565b60405180910390a3505050565b60008373ffffffffffffffffffffffffffffffffffffffff163b1115611a9d578273ffffffffffffffffffffffffffffffffffffffff1663150b7a02868685856040518563ffffffff1660e01b8152600401611952949392919061353a565b6020604051808303816000875af192505050801561198e57506040513d601f19601f8201168201806040525081019061198b919061359b565b60015b611a12573d80600081146119be576040519150601f19603f3d011682016040523d82523d6000602084013e6119c3565b606091505b506000815103611a0a57836040517f64a0ae92000000000000000000000000000000000000000000000000000000008152600401611a019190612a4d565b60405180910390fd5b805181602001fd5b63150b7a0260e01b7bffffffffffffffffffffffffffffffffffffffffffffffffffffffff1916817bffffffffffffffffffffffffffffffffffffffffffffffffffffffff191614611a9b57836040517f64a0ae92000000000000000000000000000000000000000000000000000000008152600401611a929190612a4d565b60405180910390fd5b505b5050505050565b600073ffffffffffffffffffffffffffffffffffffffff168273ffffffffffffffffffffffffffffffffffffffff1603611b165760006040517f64a0ae92000000000000000000000000000000000000000000000000000000008152600401611b0d9190612a4d565b60405180910390fd5b6000611b24838360006115a1565b9050600073ffffffffffffffffffffffffffffffffffffffff168173ffffffffffffffffffffffffffffffffffffffff1614611b985760006040517f73c6ac6e000000000000000000000000000000000000000000000000000000008152600401611b8f9190612a4d565b60405180910390fd5b505050565b606060405180602001604052806000815250905090565b606060006001611bc384612398565b01905060008167ffffffffffffffff811115611be257611be161275a565b5b6040519080825280601f01601f191660200182016040528015611c145781602001600182028036833780820191505090505b509050600082602001820190505b600115611c77578080600190039150507f3031323334353637383961626364656600000000000000000000000000000000600a86061a8153600a8581611c6b57611c6a6135c8565b5b04945060008503611c22575b819350505050919050565b60007f01ffc9a7000000000000000000000000000000000000000000000000000000007bffffffffffffffffffffffffffffffffffffffffffffffffffffffff1916827bffffffffffffffffffffffffffffffffffffffffffffffffffffffff1916149050919050565b60006002600083815260200190815260200160002060009054906101000a900473ffffffffffffffffffffffffffffffffffffffff169050919050565b8080611d625750600073ffffffffffffffffffffffffffffffffffffffff168273ffffffffffffffffffffffffffffffffffffffff1614155b15611e96576000611d72846114c2565b9050600073ffffffffffffffffffffffffffffffffffffffff168373ffffffffffffffffffffffffffffffffffffffff1614158015611ddd57508273ffffffffffffffffffffffffffffffffffffffff168173ffffffffffffffffffffffffffffffffffffffff1614155b8015611df05750611dee8184611203565b155b15611e3257826040517fa9fbf51f000000000000000000000000000000000000000000000000000000008152600401611e299190612a4d565b60405180910390fd5b8115611e9457838573ffffffffffffffffffffffffffffffffffffffff168273ffffffffffffffffffffffffffffffffffffffff167f8c5be1e5ebec7d5bd14f71427d1e84f3dd0314c0f7b2291e5b200ac8c7c3b92560405160405180910390a45b505b836004600085815260200190815260200160002060006101000a81548173ffffffffffffffffffffffffffffffffffffffff021916908373ffffffffffffffffffffffffffffffffffffffff16021790555050505050565b600080611efa84611cec565b9050600073ffffffffffffffffffffffffffffffffffffffff168373ffffffffffffffffffffffffffffffffffffffff1614611f3c57611f3b8184866124eb565b5b600073ffffffffffffffffffffffffffffffffffffffff168173ffffffffffffffffffffffffffffffffffffffff1614611fcd57611f7e600085600080611d29565b6001600360008373ffffffffffffffffffffffffffffffffffffffff1673ffffffffffffffffffffffffffffffffffffffff168152602001908152602001600020600082825403925050819055505b600073ffffffffffffffffffffffffffffffffffffffff168573ffffffffffffffffffffffffffffffffffffffff1614612050576001600360008773ffffffffffffffffffffffffffffffffffffffff1673ffffffffffffffffffffffffffffffffffffffff168152602001908152602001600020600082825401925050819055505b846002600086815260200190815260200160002060006101000a81548173ffffffffffffffffffffffffffffffffffffffff021916908373ffffffffffffffffffffffffffffffffffffffff160217905550838573ffffffffffffffffffffffffffffffffffffffff168273ffffffffffffffffffffffffffffffffffffffff167fddf252ad1be2c89b69c2b068fc378daa952ba7f163c4a11628f55a4df523b3ef60405160405180910390a4809150509392505050565b6008805490506009600083815260200190815260200160002081905550600881908060018154018082558091505060019003906000526020600020016000909190919091505550565b600061215c83610e46565b90506000600760008481526020019081526020016000205490506000600660008673ffffffffffffffffffffffffffffffffffffffff1673ffffffffffffffffffffffffffffffffffffffff16815260200190815260200160002090508282146122085760008160008581526020019081526020016000205490508082600085815260200190815260200160002081905550826007600083815260200190815260200160002081905550505b6007600085815260200190815260200160002060009055806000848152602001908152602001600020600090555050505050565b6000600160088054905061225091906135f7565b90506000600960008481526020019081526020016000205490506000600883815481106122805761227f6132a7565b5b9060005260206000200154905080600883815481106122a2576122a16132a7565b5b9060005260206000200181905550816009600083815260200190815260200160002081905550600960008581526020019081526020016000206000905560088054806122f1576122f061362b565b5b6001900381819060005260206000200160009055905550505050565b6000600161231a84610e46565b61232491906135f7565b905081600660008573ffffffffffffffffffffffffffffffffffffffff1673ffffffffffffffffffffffffffffffffffffffff168152602001908152602001600020600083815260200190815260200160002081905550806007600084815260200190815260200160002081905550505050565b600080600090507a184f03e93ff9f4daa797ed6e38ed64bf6a1f01000000000000000083106123f6577a184f03e93ff9f4daa797ed6e38ed64bf6a1f01000000000000000083816123ec576123eb6135c8565b5b0492506040810190505b6d04ee2d6d415b85acef81000000008310612433576d04ee2d6d415b85acef81000000008381612429576124286135c8565b5b0492506020810190505b662386f26fc10000831061246257662386f26fc100008381612458576124576135c8565b5b0492506010810190505b6305f5e100831061248b576305f5e1008381612481576124806135c8565b5b0492506008810190505b61271083106124b05761271083816124a6576124a56135c8565b5b0492506004810190505b606483106124d357606483816124c9576124c86135c8565b5b0492506002810190505b600a83106124e2576001810190505b80915050919050565b6124f68383836125af565b6125aa57600073ffffffffffffffffffffffffffffffffffffffff168373ffffffffffffffffffffffffffffffffffffffff160361256b57806040517f7e2732890000000000000000000000000000000000000000000000000000000081526004016125629190612b59565b60405180910390fd5b81816040517f177e802f0000000000000000000000000000000000000000000000000000000081526004016125a1929190613212565b60405180910390fd5b505050565b60008073ffffffffffffffffffffffffffffffffffffffff168373ffffffffffffffffffffffffffffffffffffffff161415801561266757508273ffffffffffffffffffffffffffffffffffffffff168473ffffffffffffffffffffffffffffffffffffffff16148061262857506126278484611203565b5b8061266657508273ffffffffffffffffffffffffffffffffffffffff1661264e8361154a565b73ffffffffffffffffffffffffffffffffffffffff16145b5b90509392505050565b6000604051905090565b600080fd5b600080fd5b60007fffffffff0000000000000000000000000000000000000000000000000000000082169050919050565b6126b981612684565b81146126c457600080fd5b50565b6000813590506126d6816126b0565b92915050565b6000602082840312156126f2576126f161267a565b5b6000612700848285016126c7565b91505092915050565b60008115159050919050565b61271e81612709565b82525050565b60006020820190506127396000830184612715565b92915050565b600080fd5b600080fd5b6000601f19601f8301169050919050565b7f4e487b7100000000000000000000000000000000000000000000000000000000600052604160045260246000fd5b61279282612749565b810181811067ffffffffffffffff821117156127b1576127b061275a565b5b80604052505050565b60006127c4612670565b90506127d08282612789565b919050565b600067ffffffffffffffff8211156127f0576127ef61275a565b5b6127f982612749565b9050602081019050919050565b82818337600083830152505050565b6000612828612823846127d5565b6127ba565b90508281526020810184848401111561284457612843612744565b5b61284f848285612806565b509392505050565b600082601f83011261286c5761286b61273f565b5b813561287c848260208601612815565b91505092915050565b6000819050919050565b61289881612885565b81146128a357600080fd5b50565b6000813590506128b58161288f565b92915050565b600080600080608085870312156128d5576128d461267a565b5b600085013567ffffffffffffffff8111156128f3576128f261267f565b5b6128ff87828801612857565b9450506020612910878288016128a6565b9350506040612921878288016128a6565b9250506060612932878288016128a6565b91505092959194509250565b600081519050919050565b600082825260208201905092915050565b60005b8381101561297857808201518184015260208101905061295d565b60008484015250505050565b600061298f8261293e565b6129998185612949565b93506129a981856020860161295a565b6129b281612749565b840191505092915050565b600060208201905081810360008301526129d78184612984565b905092915050565b6000602082840312156129f5576129f461267a565b5b6000612a03848285016128a6565b91505092915050565b600073ffffffffffffffffffffffffffffffffffffffff82169050919050565b6000612a3782612a0c565b9050919050565b612a4781612a2c565b82525050565b6000602082019050612a626000830184612a3e565b92915050565b612a7181612a2c565b8114612a7c57600080fd5b50565b600081359050612a8e81612a68565b92915050565b60008060408385031215612aab57612aaa61267a565b5b6000612ab985828601612a7f565b9250506020612aca858286016128a6565b9150509250929050565b612add81612885565b82525050565b600060e082019050612af8600083018a612ad4565b8181036020830152612b0a8189612984565b9050612b196040830188612ad4565b612b266060830187612ad4565b612b336080830186612ad4565b612b4060a0830185612ad4565b612b4d60c0830184612715565b98975050505050505050565b6000602082019050612b6e6000830184612ad4565b92915050565b600080600060608486031215612b8d57612b8c61267a565b5b6000612b9b86828701612a7f565b9350506020612bac86828701612a7f565b9250506040612bbd868287016128a6565b9150509250925092565b600060c0820190508181036000830152612be18189612984565b9050612bf06020830188612ad4565b612bfd6040830187612ad4565b612c0a6060830186612ad4565b612c176080830185612ad4565b612c2460a0830184612715565b979650505050505050565b600060208284031215612c4557612c4461267a565b5b6000612c5384828501612a7f565b91505092915050565b612c6581612709565b8114612c7057600080fd5b50565b600081359050612c8281612c5c565b92915050565b60008060408385031215612c9f57612c9e61267a565b5b6000612cad85828601612a7f565b9250506020612cbe85828601612c73565b9150509250929050565b600067ffffffffffffffff821115612ce357612ce261275a565b5b612cec82612749565b9050602081019050919050565b6000612d0c612d0784612cc8565b6127ba565b905082815260208101848484011115612d2857612d27612744565b5b612d33848285612806565b509392505050565b600082601f830112612d5057612d4f61273f565b5b8135612d60848260208601612cf9565b91505092915050565b60008060008060808587031215612d8357612d8261267a565b5b6000612d9187828801612a7f565b9450506020612da287828801612a7f565b9350506040612db3878288016128a6565b925050606085013567ffffffffffffffff811115612dd457612dd361267f565b5b612de087828801612d3b565b91505092959194509250565b60008060408385031215612e0357612e0261267a565b5b6000612e1185828601612a7f565b9250506020612e2285828601612a7f565b9150509250929050565b7f4e487b7100000000000000000000000000000000000000000000000000000000600052602260045260246000fd5b60006002820490506001821680612e7357607f821691505b602082108103612e8657612e85612e2c565b5b50919050565b60008190508160005260206000209050919050565b60006020601f8301049050919050565b600082821b905092915050565b600060088302612eee7fffffffffffffffffffffffffffffffffffffffffffffffffffffffffffffffff82612eb1565b612ef88683612eb1565b95508019841693508086168417925050509392505050565b6000819050919050565b6000612f35612f30612f2b84612885565b612f10565b612885565b9050919050565b6000819050919050565b612f4f83612f1a565b612f63612f5b82612f3c565b848454612ebe565b825550505050565b600090565b612f78612f6b565b612f83818484612f46565b505050565b5b81811015612fa757612f9c600082612f70565b600181019050612f89565b5050565b601f821115612fec57612fbd81612e8c565b612fc684612ea1565b81016020851015612fd5578190505b612fe9612fe185612ea1565b830182612f88565b50505b505050565b600082821c905092915050565b600061300f60001984600802612ff1565b1980831691505092915050565b60006130288383612ffe565b9150826002028217905092915050565b6130418261293e565b67ffffffffffffffff81111561305a5761305961275a565b5b6130648254612e5b565b61306f828285612fab565b600060209050601f8311600181146130a25760008415613090578287015190505b61309a858261301c565b865550613102565b601f1984166130b086612e8c565b60005b828110156130d8578489015182556001820191506020850194506020810190506130b3565b868310156130f557848901516130f1601f891682612ffe565b8355505b6001600288020188555050505b505050505050565b600060a08201905061311f6000830188612ad4565b81810360208301526131318187612984565b90506131406040830186612ad4565b61314d6060830185612ad4565b61315a6080830184612ad4565b9695505050505050565b7f4e487b7100000000000000000000000000000000000000000000000000000000600052601160045260246000fd5b600061319e82612885565b91507fffffffffffffffffffffffffffffffffffffffffffffffffffffffffffffffff82036131d0576131cf613164565b5b600182019050919050565b60006060820190506131f06000830186612a3e565b6131fd6020830185612ad4565b61320a6040830184612a3e565b949350505050565b60006040820190506132276000830185612a3e565b6132346020830184612ad4565b9392505050565b7f4576656e7420697320616c726561647920696e61637469766500000000000000600082015250565b6000613271601983612949565b915061327c8261323b565b602082019050919050565b600060208201905081810360008301526132a081613264565b9050919050565b7f4e487b7100000000000000000000000000000000000000000000000000000000600052603260045260246000fd5b7f4576656e74206973206e6f742061637469766500000000000000000000000000600082015250565b600061330c601383612949565b9150613317826132d6565b602082019050919050565b6000602082019050818103600083015261333b816132ff565b9050919050565b7f4576656e7420697320736f6c64206f7574000000000000000000000000000000600082015250565b6000613378601183612949565b915061338382613342565b602082019050919050565b600060208201905081810360008301526133a78161336b565b9050919050565b7f496e73756666696369656e74207061796d656e74000000000000000000000000600082015250565b60006133e4601483612949565b91506133ef826133ae565b602082019050919050565b60006020820190508181036000830152613413816133d7565b9050919050565b600061342582612885565b915061343083612885565b925082820190508082111561344857613447613164565b5b92915050565b60006060820190506134636000830186612ad4565b6134706020830185612a3e565b61347d6040830184612ad4565b949350505050565b600081905092915050565b600061349b8261293e565b6134a58185613485565b93506134b581856020860161295a565b80840191505092915050565b60006134cd8285613490565b91506134d98284613490565b91508190509392505050565b600081519050919050565b600082825260208201905092915050565b600061350c826134e5565b61351681856134f0565b935061352681856020860161295a565b61352f81612749565b840191505092915050565b600060808201905061354f6000830187612a3e565b61355c6020830186612a3e565b6135696040830185612ad4565b818103606083015261357b8184613501565b905095945050505050565b600081519050613595816126b0565b92915050565b6000602082840312156135b1576135b061267a565b5b60006135bf84828501613586565b91505092915050565b7f4e487b7100000000000000000000000000000000000000000000000000000000600052601260045260246000fd5b600061360282612885565b915061360d83612885565b925082820390508181111561362557613624613164565b5b92915050565b7f4e487b7100000000000000000000000000000000000000000000000000000000600052603160045260246000fdfea2646970667358221220842b070ea58a3c76b123b786a899d24e40f8dfbf84cc432c07e52eabc6c4174064736f6c63430008140033",
  "linkReferences": {},
  "deployedLinkReferences": {}
}